{"abi":[{"type":"constructor","inputs":[{"name":"_accessControl","type":"address","internalType":"address"},{"name":"_registry","type":"address","internalType":"address"}],"stateMutability":"nonpayable"},{"type":"function","name":"AUDITOR_ROLE","inputs":[],"outputs":[{"name":"","type":"bytes32","internalType":"bytes32"}],"stateMutability":"view"},{"type":"function","name":"CARETAKER_ROLE","inputs":[],"outputs":[{"name":"","type":"bytes32","internalType":"bytes32"}],"stateMutability":"view"},{"type":"function","name":"accessControl","inputs":[],"outputs":[{"name":"","type":"address","internalType":"contract AxoloAccess"}],"stateMutability":"view"},{"type":"function","name":"contestMeasurement","inputs":[{"name":"measurementId","type":"uint256","internalType":"uint256"},{"name":"reason","type":"string","internalType":"string"}],"outputs":[],"stateMutability":"nonpayable"},{"type":"function","name":"getLastValidatedMeasurement","inputs":[{"name":"tankId","type":"uint256","internalType":"uint256"}],"outputs":[{"name":"","type":"tuple","internalType":"struct AxoloMonitoring.Measurement","components":[{"name":"id","type":"uint256","internalType":"uint256"},{"name":"tankId","type":"uint256","internalType":"uint256"},{"name":"recorder","type":"address","internalType":"address"},{"name":"timestamp","type":"uint256","internalType":"uint256"},{"name":"temperature","type":"uint16","internalType":"uint16"},{"name":"ph","type":"uint16","internalType":"uint16"},{"name":"dissolvedOxygen","type":"uint16","internalType":"uint16"},{"name":"conductivity","type":"uint16","internalType":"uint16"},{"name":"turbidity","type":"uint16","internalType":"uint16"},{"name":"phosphates","type":"uint16","internalType":"uint16"},{"name":"no2","type":"uint16","internalType":"uint16"},{"name":"no3","type":"uint16","internalType":"uint16"},{"name":"ammonia","type":"uint16","internalType":"uint16"},{"name":"hardness","type":"uint16","internalType":"uint16"},{"name":"status","type":"uint8","internalType":"enum AxoloMonitoring.MeasurementStatus"},{"name":"validator","type":"address","internalType":"address"},{"name":"validatedAt","type":"uint256","internalType":"uint256"},{"name":"contestReason","type":"string","internalType":"string"}]}],"stateMutability":"view"},{"type":"function","name":"getMeasurement","inputs":[{"name":"measurementId","type":"uint256","internalType":"uint256"}],"outputs":[{"name":"","type":"tuple","internalType":"struct AxoloMonitoring.Measurement","components":[{"name":"id","type":"uint256","internalType":"uint256"},{"name":"tankId","type":"uint256","internalType":"uint256"},{"name":"recorder","type":"address","internalType":"address"},{"name":"timestamp","type":"uint256","internalType":"uint256"},{"name":"temperature","type":"uint16","internalType":"uint16"},{"name":"ph","type":"uint16","internalType":"uint16"},{"name":"dissolvedOxygen","type":"uint16","internalType":"uint16"},{"name":"conductivity","type":"uint16","internalType":"uint16"},{"name":"turbidity","type":"uint16","internalType":"uint16"},{"name":"phosphates","type":"uint16","internalType":"uint16"},{"name":"no2","type":"uint16","internalType":"uint16"},{"name":"no3","type":"uint16","internalType":"uint16"},{"name":"ammonia","type":"uint16","internalType":"uint16"},{"name":"hardness","type":"uint16","internalType":"uint16"},{"name":"status","type":"uint8","internalType":"enum AxoloMonitoring.MeasurementStatus"},{"name":"validator","type":"address","internalType":"address"},{"name":"validatedAt","type":"uint256","internalType":"uint256"},{"name":"contestReason","type":"string","internalType":"string"}]}],"stateMutability":"view"},{"type":"function","name":"getTankStatus","inputs":[{"name":"tankId","type":"uint256","internalType":"uint256"}],"outputs":[{"name":"","type":"tuple","internalType":"struct AxoloMonitoring.TankStatus","components":[{"name":"lastPendingId","type":"uint256","internalType":"uint256"},{"name":"lastValidatedId","type":"uint256","internalType":"uint256"},{"name":"totalMeasurements","type":"uint256","internalType":"uint256"}]}],"stateMutability":"view"},{"type":"function","name":"measurementCount","inputs":[],"outputs":[{"name":"","type":"uint256","internalType":"uint256"}],"stateMutability":"view"},{"type":"function","name":"measurements","inputs":[{"name":"","type":"uint256","internalType":"uint256"}],"outputs":[{"name":"id","type":"uint256","internalType":"uint256"},{"name":"tankId","type":"uint256","internalType":"uint256"},{"name":"recorder","type":"address","internalType":"address"},{"name":"timestamp","type":"uint256","internalType":"uint256"},{"name":"temperature","type":"uint16","internalType":"uint16"},{"name":"ph","type":"uint16","internalType":"uint16"},{"name":"dissolvedOxygen","type":"uint16","internalType":"uint16"},{"name":"conductivity","type":"uint16","internalType":"uint16"},{"name":"turbidity","type":"uint16","internalType":"uint16"},{"name":"phosphates","type":"uint16","internalType":"uint16"},{"name":"no2","type":"uint16","internalType":"uint16"},{"name":"no3","type":"uint16","internalType":"uint16"},{"name":"ammonia","type":"uint16","internalType":"uint16"},{"name":"hardness","type":"uint16","internalType":"uint16"},{"name":"status","type":"uint8","internalType":"enum AxoloMonitoring.MeasurementStatus"},{"name":"validator","type":"address","internalType":"address"},{"name":"validatedAt","type":"uint256","internalType":"uint256"},{"name":"contestReason","type":"string","internalType":"string"}],"stateMutability":"view"},{"type":"function","name":"nextMeasurementId","inputs":[],"outputs":[{"name":"","type":"uint256","internalType":"uint256"}],"stateMutability":"view"},{"type":"function","name":"recordMeasurement","inputs":[{"name":"p","type":"tuple","internalType":"struct AxoloMonitoring.MeasurementParams","components":[{"name":"tankId","type":"uint256","internalType":"uint256"},{"name":"temperature","type":"uint16","internalType":"uint16"},{"name":"ph","type":"uint16","internalType":"uint16"},{"name":"dissolvedOxygen","type":"uint16","internalType":"uint16"},{"name":"conductivity","type":"uint16","internalType":"uint16"},{"name":"turbidity","type":"uint16","internalType":"uint16"},{"name":"phosphates","type":"uint16","internalType":"uint16"},{"name":"no2","type":"uint16","internalType":"uint16"},{"name":"no3","type":"uint16","internalType":"uint16"},{"name":"ammonia","type":"uint16","internalType":"uint16"},{"name":"hardness","type":"uint16","internalType":"uint16"}]}],"outputs":[{"name":"measurementId","type":"uint256","internalType":"uint256"}],"stateMutability":"nonpayable"},{"type":"function","name":"registry","inputs":[],"outputs":[{"name":"","type":"address","internalType":"contract AxoloRegistry"}],"stateMutability":"view"},{"type":"function","name":"tankStatus","inputs":[{"name":"","type":"uint256","internalType":"uint256"}],"outputs":[{"name":"lastPendingId","type":"uint256","internalType":"uint256"},{"name":"lastValidatedId","type":"uint256","internalType":"uint256"},{"name":"totalMeasurements","type":"uint256","internalType":"uint256"}],"stateMutability":"view"},{"type":"function","name":"validateMeasurement","inputs":[{"name":"measurementId","type":"uint256","internalType":"uint256"}],"outputs":[],"stateMutability":"nonpayable"},{"type":"event","name":"MeasurementContested","inputs":[{"name":"measurementId","type":"uint256","indexed":true,"internalType":"uint256"},{"name":"tankId","type":"uint256","indexed":true,"internalType":"uint256"},{"name":"validator","type":"address","indexed":true,"internalType":"address"},{"name":"reason","type":"string","indexed":false,"internalType":"string"}],"anonymous":false},{"type":"event","name":"MeasurementRecorded","inputs":[{"name":"measurementId","type":"uint256","indexed":true,"internalType":"uint256"},{"name":"tankId","type":"uint256","indexed":true,"internalType":"uint256"},{"name":"recorder","type":"address","indexed":true,"internalType":"address"},{"name":"timestamp","type":"uint256","indexed":false,"internalType":"uint256"}],"anonymous":false},{"type":"event","name":"MeasurementValidated","inputs":[{"name":"measurementId","type":"uint256","indexed":true,"internalType":"uint256"},{"name":"tankId","type":"uint256","indexed":true,"internalType":"uint256"},{"name":"validator","type":"address","indexed":true,"internalType":"address"},{"name":"timestamp","type":"uint256","indexed":false,"internalType":"uint256"}],"anonymous":false}],"bytecode":{"object":"0x608034620000b057601f6200186838819003918201601f19168301916001600160401b03831184841017620000b4578084926040948552833981010312620000b0576200005a60206200005283620000c8565b9201620000c8565b60016002556001600160a01b03918216919062000079831515620000dd565b169062000088821515620000dd565b60018060a01b031990815f5416175f55600154161760015560405161173d90816200012b8239f35b5f80fd5b634e487b7160e01b5f52604160045260245ffd5b51906001600160a01b0382168203620000b057565b15620000e557565b60405162461bcd60e51b815260206004820152601d60248201527f41786f6c6f4d6f6e69746f72696e673a207a65726f20616464726573730000006044820152606490fdfe6080806040526004361015610012575f80fd5b5f3560e01c908163033e6f4d146111f45750806313007d55146111cd5780631adb06ed14610e615780633148cd55146107f557806337c79e66146106eb5780633cb5ffa5146106ae5780635743b297146106915780636e1d616e1461065757806374ba3225146106165780637791a772146104fa5780637b103999146104d257806384afab14146102d95780638616a646146102615763a6021847146100b6575f80fd5b3461025d5760208060031936011261025d576100d0611685565b506004355f5260048152600160405f2001549081156101f3576101ef915f52600381526101dd600760405f2060405193610109856113b6565b815485526001820154818601526101c060ff60018060a01b0392836002860154166040890152600385015460608901526004850154809161ffff91829182821660808d0152828260101c1660a08d01521c1660c08a0152808260301c1660e08a0152808260401c166101008a0152808260501c166101208a0152808260601c166101408a0152808260701c166101608a0152808260801c166101808a01528160901c166101a089015260a01c166101c08701611679565b6005820154166101e0850152600681015461020085015201611411565b6102208201526040519182918261127f565b0390f35b6084906040519062461bcd60e51b82526004820152603760248201527f41786f6c6f4d6f6e69746f72696e673a206e6f2076616c696461746564206d6560448201527f61737572656d656e7420666f7220746869732074616e6b0000000000000000006064820152fd5b5f80fd5b3461025d57602036600319011261025d575f60408051610280816113d3565b82815282602082015201526004355f526004602052606060405f206040516102a7816113d3565b815491828252604060026001830154926020850193845201549201918252604051928352516020830152516040820152f35b3461025d5760208060031936011261025d5760043560018060a01b03604483825f541660405192838092632474521560e21b82527f59a1c48e5837ad7a7f3dcedcbe129bf3249ec4fbf651fd4f5e2600ead39fe2f560048301523360248301525afa80156104c7575f90610491575b61035291506114c0565b815f526003835260405f209061036a8254151561151e565b600482019081549060ff8260a01c16600381101561047d5761038c901561157e565b600284015416331461041c5760ff60a01b1916600160a01b1790556005810180546001600160a01b03191633179055426006820155600190810180545f908152600485526040902090910180548391908211610414575b505054907fc686974dc97d70f084388796cefdbfad42c93c6f3d1be8b018bbdefca5dfe18c604051934285523394a4005b5581846103e3565b60405162461bcd60e51b815260048101869052603360248201527f41786f6c6f4d6f6e69746f72696e673a2061756469746f722063616e6e6f74206044820152721d985b1a59185d19481bdddb881c9958dbdc99606a1b6064820152608490fd5b634e487b7160e01b5f52602160045260245ffd5b508381813d83116104c0575b6104a781836113ef565b8101031261025d576104bb610352916114b3565b610348565b503d61049d565b6040513d5f823e3d90fd5b3461025d575f36600319011261025d576001546040516001600160a01b039091168152602090f35b3461025d57602036600319011261025d576004355f52600360205260405f2080546101ef60018301549160018060a01b039081600286015416946003810154926105fb600483015461ffff926005850154169261055e600760068701549601611411565b966040519a8b9a610240988c5260208c015260408b015260608a015280821660808a0152808260101c1660a08a0152808260201c1660c08a0152808260301c1660e08a0152808260401c166101008a0152808260501c166101208a0152808260601c166101408a0152808260701c166101608a0152808260801c166101808a01528160901c166101a089015260ff6101c089019160a01c1661122c565b6101e08601526102008501528061022085015283019061125a565b3461025d57602036600319011261025d576004355f526004602052606060405f20805490600260018201549101549060405192835260208301526040820152f35b3461025d575f36600319011261025d5760206040517f59a1c48e5837ad7a7f3dcedcbe129bf3249ec4fbf651fd4f5e2600ead39fe2f58152f35b3461025d575f36600319011261025d576020600254604051908152f35b3461025d575f36600319011261025d576002545f1981019081116106d757602090604051908152f35b634e487b7160e01b5f52601160045260245ffd5b3461025d57602036600319011261025d57600435610707611685565b50805f52600360205261071f60405f2054151561151e565b5f5260036020526101ef60405f206101dd60076040519261073f846113b6565b805484526001810154602085015260018060a01b03806002830154166040860152600382015460608601526101c060ff600484015461ffff80821660808a0152808260101c1660a08a0152808260201c1660c08a0152808260301c1660e08a0152808260401c166101008a0152808260501c166101208a0152808260601c166101408a0152808260701c166101608a0152808260801c166101808a01528160901c166101a089015260a01c166101c08701611679565b3461025d5761016036600319011261025d575f54604051632474521560e21b81527f53b89ac75efe2c37162cd6795f5bf8b9c749f1d0387576893c1d2d0c23a326f3600482015233602482015290602090829060449082906001600160a01b03165afa9081156104c7575f91610e27575b5015610dcf576001546040516328e6e46360e11b81526004803590820152905f90829060249082906001600160a01b03165afa80156104c7575f90610d05575b60a09150015115610cb4576002546108bd8161166b565b6002556024359061ffff8216820361025d5760443561ffff8116810361025d5760643561ffff8116810361025d5760843561ffff8116810361025d5760a43561ffff8116810361025d5760c43561ffff8116810361025d5760e4359161ffff8316830361025d57610104359361ffff8516850361025d57610124359561ffff8716870361025d57610144359761ffff8916890361025d576040519a6109618c6113b6565b8a8c5260043560208d01523360408d01524260608d015261ffff1660808c015261ffff1660a08b015261ffff1660c08a015261ffff1660e089015261ffff1661010088015261ffff1661012087015261ffff1661014086015261ffff1661016085015261ffff1661018084015261ffff166101a08301526101c082015f90526101e082015f905261020082015f90526040518060208101106020820167ffffffffffffffff1017610ca057602081016040525f8152610220830152805f52600360205260405f20825181556020830151600182015560018060a01b036040840151166001600160601b0360a01b6002830154161760028201556060830151600382015561ffff6080840151169060048101549063ffff000060a086015160101b16918565ffff0000000060c082015160201b1667ffff00000000000060e083015160301b1669ffff000000000000000061010084015160401b1661ffff60501b61012085015160501b1661ffff60601b61014086015160601b169161ffff60701b61016087015160701b169361ffff60801b61018088015160801b16956101c061ffff60901b6101a08a015160901b169801519a60038c101561047d576102209c60079c60ff60a01b9060a01b169a6affffffffffffffffffffff60a81b16171717171717171717171760048201556005810160018060a01b036101e0870151166001600160601b0360a01b8254161790556102008501516006820155019201519081519267ffffffffffffffff8411610ca05783610bac602095610ba6845461137e565b846115ca565b8493601f8211600114610c4157610bdc92939482915f92610c36575b50508160011b915f199060031b1c19161790565b90555b6004355f5260048252600260405f2082815501610bfc815461166b565b90556040514281523390827f61fbd78e9d6f1b73fcdf967ee26a8bfaa8664275ce5d7820f35f2c6433bda5c08560043593a4604051908152f35b015190508680610bc8565b601f19821694835f52865f20915f5b878110610c89575083600195969710610c71575b505050811b019055610bdf565b01515f1960f88460031b161c19169055858080610c64565b919288600181928685015181550194019201610c50565b634e487b7160e01b5f52604160045260245ffd5b60405162461bcd60e51b815260206004820152602360248201527f41786f6c6f4d6f6e69746f72696e673a2074616e6b206973206e6f742061637460448201526269766560e81b6064820152608490fd5b503d805f833e610d1581836113ef565b810160208282031261025d57815167ffffffffffffffff9283821161025d57019160c08383031261025d576040519160c0830183811083821117610ca05760405283518352602084015182811161025d5781610d72918601611619565b6020840152604084015191821161025d57610d8e918401611619565b60408201526060820151916001600160a01b038316830361025d5760a0610dc6918194606085015260808101516080850152016114b3565b828201526108a6565b60405162461bcd60e51b815260206004820152602a60248201527f41786f6c6f4d6f6e69746f72696e673a2063616c6c6572206973206e6f7420616044820152691031b0b932ba30b5b2b960b11b6064820152608490fd5b90506020813d602011610e59575b81610e42602093836113ef565b8101031261025d57610e53906114b3565b81610866565b3d9150610e35565b3461025d57604036600319011261025d57602467ffffffffffffffff813560043582821161025d573660238301121561025d57816004013592831161025d573684848401011161025d575f54604051632474521560e21b81527f59a1c48e5837ad7a7f3dcedcbe129bf3249ec4fbf651fd4f5e2600ead39fe2f5600482015233818701526001600160a01b03956020929091908390829060449082908b165afa80156104c7575f90611197575b610f1891506114c0565b841561114457825f526003825260405f2095610f368754151561151e565b600487019081549060ff8260a01c16600381101561113157610f58901561157e565b60028901541633146110d25760ff60a01b1916600160a11b179055600786018054909690610f91908790610f8b9061137e565b896115ca565b5f601f87116001146110445782918798610fe889807f85c32657cc84004cb166dfe345b7fb6b274505f9665d30a5594a3f93e0801583999a9b976001965f926110375750508160011b915f199060031b1c19161790565b90555b60058101336001600160601b0360a01b82541617905542600682015501549582604051948086528501520160408301375f604086830101526040813396601f80199101168101030190a4005b8d0101359050868e610bc8565b96601f19871697815f52845f20985f5b8181106110b95750918899899594927f85c32657cc84004cb166dfe345b7fb6b274505f9665d30a5594a3f93e080158398999a6001951061109e575b50508285811b019055610feb565b8a018501355f19600388901b60f8161c191690558a80611090565b91998660018192888e8d0101358155019b019201611054565b60405162461bcd60e51b8152600481018590526032818501527f41786f6c6f4d6f6e69746f72696e673a2061756469746f722063616e6e6f742060448201527118dbdb9d195cdd081bdddb881c9958dbdc9960721b6064820152608490fd5b84634e487b7160e01b5f5260216004525ffd5b9060276084926040519262461bcd60e51b845260048401528201527f41786f6c6f4d6f6e69746f72696e673a20726561736f6e2063616e6e6f7420626044820152666520656d70747960c81b6064820152fd5b508281813d83116111c6575b6111ad81836113ef565b8101031261025d576111c1610f18916114b3565b610f0e565b503d6111a3565b3461025d575f36600319011261025d575f546040516001600160a01b039091168152602090f35b3461025d575f36600319011261025d57807f53b89ac75efe2c37162cd6795f5bf8b9c749f1d0387576893c1d2d0c23a326f360209252f35b90600382101561047d5752565b5f5b83811061124a5750505f910152565b818101518382015260200161123b565b9060209161127381518092818552858086019101611239565b601f01601f1916010190565b61026061137b92602083528051602084015260208101516040840152604081015160018060a01b03809116606085015260608201516080850152608082015161ffff80911660a08601528060a08401511660c08601528060c08401511660e086015260e08301518161010091168187015283015181610120911681870152830151816101409116818701528301518161016091168187015283015181610180911681870152830151816101a0911681870152830151906101c09116818601528201516113516101e0918287019061122c565b8201519061020091168185015281015190610220918285015201519161024080820152019061125a565b90565b90600182811c921680156113ac575b602083101461139857565b634e487b7160e01b5f52602260045260245ffd5b91607f169161138d565b610240810190811067ffffffffffffffff821117610ca057604052565b6060810190811067ffffffffffffffff821117610ca057604052565b90601f8019910116810190811067ffffffffffffffff821117610ca057604052565b9060405191825f82546114238161137e565b908184526020946001916001811690815f146114915750600114611453575b505050611451925003836113ef565b565b5f90815285812095935091905b81831061147957505061145193508201015f8080611442565b85548884018501529485019487945091830191611460565b9250505061145194925060ff191682840152151560051b8201015f8080611442565b5190811515820361025d57565b156114c757565b60405162461bcd60e51b815260206004820152602960248201527f41786f6c6f4d6f6e69746f72696e673a2063616c6c6572206973206e6f742061604482015268371030bab234ba37b960b91b6064820152608490fd5b1561152557565b60405162461bcd60e51b815260206004820152602b60248201527f41786f6c6f4d6f6e69746f72696e673a206d6561737572656d656e7420646f6560448201526a1cc81b9bdd08195e1a5cdd60aa1b6064820152608490fd5b1561158557565b60405162461bcd60e51b815260206004820152601c60248201527f41786f6c6f4d6f6e69746f72696e673a206e6f742070656e64696e67000000006044820152606490fd5b601f82116115d757505050565b5f5260205f20906020601f840160051c8301931061160f575b601f0160051c01905b818110611604575050565b5f81556001016115f9565b90915081906115f0565b81601f8201121561025d57805167ffffffffffffffff8111610ca0576040519261164d601f8301601f1916602001856113ef565b8184526020828401011161025d5761137b9160208085019101611239565b5f1981146106d75760010190565b600382101561047d5752565b60405190611692826113b6565b6060610220835f81525f60208201525f60408201525f838201525f60808201525f60a08201525f60c08201525f60e08201525f6101008201525f6101208201525f6101408201525f6101608201525f6101808201525f6101a08201525f6101c08201525f6101e08201525f610200820152015256fea2646970667358221220556cc3fa62547aaf31ad5bbd2c341c71c0c53e5a3192232b9d6fbecb64c90b6964736f6c63430008180033","linkReferences":{}},"methodIdentifiers":{"AUDITOR_ROLE()":"6e1d616e","CARETAKER_ROLE()":"033e6f4d","accessControl()":"13007d55","contestMeasurement(uint256,string)":"1adb06ed","getLastValidatedMeasurement(uint256)":"a6021847","getMeasurement(uint256)":"37c79e66","getTankStatus(uint256)":"8616a646","measurementCount()":"3cb5ffa5","measurements(uint256)":"7791a772","nextMeasurementId()":"5743b297","recordMeasurement((uint256,uint16,uint16,uint16,uint16,uint16,uint16,uint16,uint16,uint16,uint16))":"3148cd55","registry()":"7b103999","tankStatus(uint256)":"74ba3225","validateMeasurement(uint256)":"84afab14"},"id":6}