{"abi":[{"type":"constructor","inputs":[{"name":"_accessControl","type":"address","internalType":"address"}],"stateMutability":"nonpayable"},{"type":"function","name":"REGISTRAR_ROLE","inputs":[],"outputs":[{"name":"","type":"bytes32","internalType":"bytes32"}],"stateMutability":"view"},{"type":"function","name":"accessControl","inputs":[],"outputs":[{"name":"","type":"address","internalType":"contract AxoloAccess"}],"stateMutability":"view"},{"type":"function","name":"axolotlCount","inputs":[],"outputs":[{"name":"","type":"uint256","internalType":"uint256"}],"stateMutability":"view"},{"type":"function","name":"axolotls","inputs":[{"name":"","type":"uint256","internalType":"uint256"}],"outputs":[{"name":"id","type":"uint256","internalType":"uint256"},{"name":"name","type":"string","internalType":"string"},{"name":"species","type":"string","internalType":"string"},{"name":"birthDate","type":"uint256","internalType":"uint256"},{"name":"tankId","type":"uint256","internalType":"uint256"},{"name":"morphData","type":"string","internalType":"string"},{"name":"photoHash","type":"bytes32","internalType":"bytes32"},{"name":"registeredBy","type":"address","internalType":"address"},{"name":"registeredAt","type":"uint256","internalType":"uint256"},{"name":"active","type":"bool","internalType":"bool"}],"stateMutability":"view"},{"type":"function","name":"deactivateAxolotl","inputs":[{"name":"axolotlId","type":"uint256","internalType":"uint256"}],"outputs":[],"stateMutability":"nonpayable"},{"type":"function","name":"deactivateTank","inputs":[{"name":"tankId","type":"uint256","internalType":"uint256"}],"outputs":[],"stateMutability":"nonpayable"},{"type":"function","name":"getAxolotl","inputs":[{"name":"axolotlId","type":"uint256","internalType":"uint256"}],"outputs":[{"name":"","type":"tuple","internalType":"struct AxoloRegistry.Axolotl","components":[{"name":"id","type":"uint256","internalType":"uint256"},{"name":"name","type":"string","internalType":"string"},{"name":"species","type":"string","internalType":"string"},{"name":"birthDate","type":"uint256","internalType":"uint256"},{"name":"tankId","type":"uint256","internalType":"uint256"},{"name":"morphData","type":"string","internalType":"string"},{"name":"photoHash","type":"bytes32","internalType":"bytes32"},{"name":"registeredBy","type":"address","internalType":"address"},{"name":"registeredAt","type":"uint256","internalType":"uint256"},{"name":"active","type":"bool","internalType":"bool"}]}],"stateMutability":"view"},{"type":"function","name":"getAxolotlsInTank","inputs":[{"name":"tankId","type":"uint256","internalType":"uint256"}],"outputs":[{"name":"","type":"uint256[]","internalType":"uint256[]"}],"stateMutability":"view"},{"type":"function","name":"getTank","inputs":[{"name":"tankId","type":"uint256","internalType":"uint256"}],"outputs":[{"name":"","type":"tuple","internalType":"struct AxoloRegistry.Tank","components":[{"name":"id","type":"uint256","internalType":"uint256"},{"name":"name","type":"string","internalType":"string"},{"name":"location","type":"string","internalType":"string"},{"name":"registeredBy","type":"address","internalType":"address"},{"name":"registeredAt","type":"uint256","internalType":"uint256"},{"name":"active","type":"bool","internalType":"bool"}]}],"stateMutability":"view"},{"type":"function","name":"nextAxolotlId","inputs":[],"outputs":[{"name":"","type":"uint256","internalType":"uint256"}],"stateMutability":"view"},{"type":"function","name":"nextTankId","inputs":[],"outputs":[{"name":"","type":"uint256","internalType":"uint256"}],"stateMutability":"view"},{"type":"function","name":"registerAxolotl","inputs":[{"name":"name","type":"string","internalType":"string"},{"name":"species","type":"string","internalType":"string"},{"name":"birthDate","type":"uint256","internalType":"uint256"},{"name":"tankId","type":"uint256","internalType":"uint256"},{"name":"morphData","type":"string","internalType":"string"},{"name":"photoHash","type":"bytes32","internalType":"bytes32"}],"outputs":[{"name":"axolotlId","type":"uint256","internalType":"uint256"}],"stateMutability":"nonpayable"},{"type":"function","name":"registerTank","inputs":[{"name":"name","type":"string","internalType":"string"},{"name":"location","type":"string","internalType":"string"}],"outputs":[{"name":"tankId","type":"uint256","internalType":"uint256"}],"stateMutability":"nonpayable"},{"type":"function","name":"tankAxolotls","inputs":[{"name":"","type":"uint256","internalType":"uint256"},{"name":"","type":"uint256","internalType":"uint256"}],"outputs":[{"name":"","type":"uint256","internalType":"uint256"}],"stateMutability":"view"},{"type":"function","name":"tankCount","inputs":[],"outputs":[{"name":"","type":"uint256","internalType":"uint256"}],"stateMutability":"view"},{"type":"function","name":"tanks","inputs":[{"name":"","type":"uint256","internalType":"uint256"}],"outputs":[{"name":"id","type":"uint256","internalType":"uint256"},{"name":"name","type":"string","internalType":"string"},{"name":"location","type":"string","internalType":"string"},{"name":"registeredBy","type":"address","internalType":"address"},{"name":"registeredAt","type":"uint256","internalType":"uint256"},{"name":"active","type":"bool","internalType":"bool"}],"stateMutability":"view"},{"type":"function","name":"transferAxolotl","inputs":[{"name":"axolotlId","type":"uint256","internalType":"uint256"},{"name":"newTankId","type":"uint256","internalType":"uint256"}],"outputs":[],"stateMutability":"nonpayable"},{"type":"function","name":"updateAxolotl","inputs":[{"name":"axolotlId","type":"uint256","internalType":"uint256"},{"name":"newName","type":"string","internalType":"string"},{"name":"newMorphData","type":"string","internalType":"string"},{"name":"newPhotoHash","type":"bytes32","internalType":"bytes32"}],"outputs":[],"stateMutability":"nonpayable"},{"type":"function","name":"updateTank","inputs":[{"name":"tankId","type":"uint256","internalType":"uint256"},{"name":"newName","type":"string","internalType":"string"},{"name":"newLocation","type":"string","internalType":"string"}],"outputs":[],"stateMutability":"nonpayable"},{"type":"event","name":"AxolotlDeactivated","inputs":[{"name":"axolotlId","type":"uint256","indexed":true,"internalType":"uint256"},{"name":"by","type":"address","indexed":true,"internalType":"address"}],"anonymous":false},{"type":"event","name":"AxolotlRegistered","inputs":[{"name":"axolotlId","type":"uint256","indexed":true,"internalType":"uint256"},{"name":"tankId","type":"uint256","indexed":true,"internalType":"uint256"},{"name":"registeredBy","type":"address","indexed":true,"internalType":"address"},{"name":"name","type":"string","indexed":false,"internalType":"string"},{"name":"species","type":"string","indexed":false,"internalType":"string"},{"name":"birthDate","type":"uint256","indexed":false,"internalType":"uint256"}],"anonymous":false},{"type":"event","name":"AxolotlTransferred","inputs":[{"name":"axolotlId","type":"uint256","indexed":true,"internalType":"uint256"},{"name":"fromTankId","type":"uint256","indexed":true,"internalType":"uint256"},{"name":"toTankId","type":"uint256","indexed":true,"internalType":"uint256"}],"anonymous":false},{"type":"event","name":"AxolotlUpdated","inputs":[{"name":"axolotlId","type":"uint256","indexed":true,"internalType":"uint256"},{"name":"updatedBy","type":"address","indexed":true,"internalType":"address"},{"name":"newName","type":"string","indexed":false,"internalType":"string"},{"name":"newMorphData","type":"string","indexed":false,"internalType":"string"},{"name":"newPhotoHash","type":"bytes32","indexed":false,"internalType":"bytes32"}],"anonymous":false},{"type":"event","name":"TankDeactivated","inputs":[{"name":"tankId","type":"uint256","indexed":true,"internalType":"uint256"},{"name":"by","type":"address","indexed":true,"internalType":"address"}],"anonymous":false},{"type":"event","name":"TankRegistered","inputs":[{"name":"tankId","type":"uint256","indexed":true,"internalType":"uint256"},{"name":"registeredBy","type":"address","indexed":true,"internalType":"address"},{"name":"name","type":"string","indexed":false,"internalType":"string"},{"name":"location","type":"string","indexed":false,"internalType":"string"}],"anonymous":false},{"type":"event","name":"TankUpdated","inputs":[{"name":"tankId","type":"uint256","indexed":true,"internalType":"uint256"},{"name":"updatedBy","type":"address","indexed":true,"internalType":"address"},{"name":"newName","type":"string","indexed":false,"internalType":"string"},{"name":"newLocation","type":"string","indexed":false,"internalType":"string"}],"anonymous":false}],"bytecode":{"object":"0x6080346100c757601f6123c938819003918201601f19168301916001600160401b038311848410176100cb578084926020946040528339810103126100c757516001600160a01b038116908190036100c7576001805560016002558015610082575f80546001600160a01b0319169190911790556040516122e990816100e08239f35b60405162461bcd60e51b815260206004820152601b60248201527f41786f6c6f52656769737472793a207a65726f206164647265737300000000006044820152606490fd5b5f80fd5b634e487b7160e01b5f52604160045260245ffdfe60806040526004361015610011575f80fd5b5f3560e01c80631118d78b14611d3a57806313007d5514611d1357806318b27cfb1461198757806327d8eda8146116a55780633032b43f14610ffd5780633b4532ec14610cfc5780634924fd3314610c215780634d5e969514610b8857806351cdc8c614610a685780635586fe3914610a4b578063596a11fe1461086e578063666364ae146107ce57806371f1af2f146104ae5780638df081b6146102f55780639f3cc26214610198578063b6aa98931461016f578063d957e0ea14610132578063f68e95531461010b5763fc20cfd5146100ea575f80fd5b34610107575f366003190112610107576020600254604051908152f35b5f80fd5b34610107575f3660031901126101075760206040515f805160206122948339815191528152f35b34610107575f366003190112610107576001545f19810190811161015b57602090604051908152f35b634e487b7160e01b5f52601160045260245ffd5b34610107575f366003190112610107576002545f19810190811161015b57602090604051908152f35b3461010757602080600319360112610107576004359060448160018060a01b035f541660405192838092632474521560e21b82525f8051602061229483398151915260048301523360248301525afa80156102ea576101fe915f916102bd575b50611f6b565b815f526003815261021460405f205415156121e1565b815f526003815260ff600960405f200154161561026957600390825f5252600960405f200160ff19815416905533907f9564fc2c345ee1dc000827f3a371956f0501b28d7e073114287f6bcd86604ae15f80a3005b6084906040519062461bcd60e51b82526004820152602760248201527f41786f6c6f52656769737472793a2061786f6c6f746c20616c726561647920696044820152666e61637469766560c81b6064820152fd5b6102dd9150833d85116102e3575b6102d58183611e52565b810190611f53565b846101f8565b503d6102cb565b6040513d5f823e3d90fd5b34610107576020366003190112610107576004355f61012060405161031981611e36565b8281526060602082015260606040820152826060820152826080820152606060a08201528260c08201528260e0820152826101008201520152805f52600360205261036960405f205415156121e1565b5f52600360205260405f2060ff60096040519261038584611e36565b8054845261039560018201611e73565b60208501526103a660028201611e73565b604085015260038101546060850152600481015460808501526103cb60058201611e73565b60a0850152600681015460c085015260018060a01b0360078201541660e08501526008810154610100850152015416151561012082015260405180916020825280516020830152602081015161012061047a61043561014093846040880152610160870190611f15565b610451604086015191601f1992838983030160608a0152611f15565b9060608601516080880152608086015160a088015260a0860151908783030160c0880152611f15565b9260c081015160e086015260018060a01b0360e0820151166101008601526101008101518286015201511515908301520390f35b34610107576080366003190112610107576001600160401b03600435602435828111610107576104e2903690600401611db6565b9092604435818111610107576104fc903690600401611db6565b906064359560018060a01b035f5416936040518095632474521560e21b82525f80516020612294833981519152600483015233602483015281604460209889935afa80156102ea57610554915f916107b15750611f6b565b865f5260039081865261056c60405f205415156121e1565b875f5281865261058560ff600960405f2001541661223b565b875f5281865260018060405f2001828911610733576105ae896105a88354611de3565b83612073565b5f89601f811160011461075257806105da925f91610747575b508160011b915f199060031b1c19161790565b90555b885f52828752600560405f200191861161073357610605866105ff8454611de3565b84612073565b5f90601f87116001146106a95750927f139934d69b0a74a2f37e1b9b5e2c1eefe91db88c8d1cbe3d140886f4cc39c47e979694926106839261066088806106909a985f9161069e57508160011b915f199060031b1c19161790565b90555b895f52855289600660405f200155604051966060885260608801916120c2565b92858403908601526120c2565b9360408201528033940390a3005b90508701358f6105c7565b90601f19871690835f52885f20915f5b81811061071e5750927f139934d69b0a74a2f37e1b9b5e2c1eefe91db88c8d1cbe3d140886f4cc39c47e9a9997959261068395928a6106909b999610610707575b505086811b019055610663565b8701355f1989861b60f8161c191690558d806106fa565b88830135845592840192918a01918a016106b9565b634e487b7160e01b5f52604160045260245ffd5b90508701358e6105c7565b50601f198a1690825f528a8a5f20925f5b8c8783831061079a5750505010610783575b50508189811b0190556105dd565b8601355f198b871b60f8161c191690558b80610775565b858c0135875590950194938401938e935001610763565b6107c89150873d89116102e3576102d58183611e52565b8a6101f8565b3461010757602080600319360112610107576004355f526005815260405f20604051908183825491828152019081925f52845f20905f5b8682821061085a57868661081b82880383611e52565b60405192839281840190828552518091526040840192915f5b82811061084357505050500390f35b835185528695509381019392810192600101610834565b835485529093019260019283019201610805565b3461010757602080600319360112610107576004359060018060a01b035f541660405190632474521560e21b82525f805160206122948339815191526004830152602491336024820152838160448181955afa80156102ea576108d7915f91610a2e5750611f6b565b835f52600483526108ed60405f2054151561210c565b835f526004835260ff9160ff600560405f20015416156109dd575f8581526005855260408120805494915b85811061095e5787600488825f5252600560405f200160ff19815416905533907f3bad43de830fb89954438fe366bc954c077b853371c5945e4fdcda29f492a95c5f80a3005b6109688183611d8d565b9054600391821b1c5f52875282600960405f2001541661098a57600101610918565b60405162461bcd60e51b8152600481018890526027818601527f41786f6c6f52656769737472793a2074616e6b206861732061637469766520618187015266786f6c6f746c7360c81b6064820152608490fd5b60405162461bcd60e51b8152600481018590526024808201527f41786f6c6f52656769737472793a2074616e6b20616c726561647920696e61636044820152637469766560e01b6064820152608490fd5b610a459150853d87116102e3576102d58183611e52565b866101f8565b34610107575f366003190112610107576020600154604051908152f35b3461010757602080600319360112610107576004355f60a0604051610a8c81611e1b565b828152606085820152606060408201528260608201528260808201520152805f5260048252610ac060405f2054151561210c565b5f526004815260405f2060405190610ad782611e1b565b80548252610ae760018201611e73565b838301908152610af960028301611e73565b916040840192835260018060a01b03610b6e816003840154169460608701958652610b5b60ff600560048701549660808b019788520154169560a089019615158752604051998a99818b5251908a01525160c060408a015260e0890190611f15565b9051878203601f19016060890152611f15565b93511660808501525160a084015251151560c08301520390f35b34610107576020366003190112610107576004355f52600460205260405f208054610bb560018301611e73565b91610bc260028201611e73565b60018060a01b0360038301541691610c0b60ff600560048401549301541692610bfd604051978897885260c0602089015260c0880190611f15565b908682036040880152611f15565b9260608501526080840152151560a08301520390f35b34610107576020366003190112610107576004355f52600360205260405f208054610c4e60018301611e73565b91610c5b60028201611e73565b6003820154916004810154610cdf610c7560058401611e73565b9460068401549560018060a01b0360078601541693610cc760ff600960088901549801541697610cb96040519c8d809d6020610140928392815201528d0190611f15565b908b820360408d0152611f15565b9260608a0152608089015287820360a0890152611f15565b9360c086015260e085015261010084015215156101208301520390f35b3461010757610d0a36611d77565b9060018060a01b035f54169060405190632474521560e21b82525f80516020612294833981519152600483015281602493338583015281604460209586935afa80156102ea57610d60915f91610fe65750611f6b565b805f526003808352610d7760405f205415156121e1565b815f52808352610d9060ff600960405f2001541661223b565b845f526004835260405f205415610f8b57845f526004835260ff600560405f2001541615610f3157815f52808352600460405f20015492858414610eee57835f526005815260405f20945f5b865480821015610ee15785610df1838a611d8d565b905490871b1c14610e055750600101610ddc565b929394959691905f1993848101908111610ece5790610e37610e2a610e4f9386611d8d565b905490891b1c9185611d8d565b90919082549060031b91821b915f19901b1916179055565b8154908115610ebb5750820191610e668383611d8d565b9091825491871b1b19169055555b845f5260058152610e888360405f206121b9565b825f525282600460405f2001557fee9cf7ed18f13d48a1b3b7a17ddbbf7f4f98a23f868c03d18511703f717db7125f80a4005b634e487b7160e01b5f9081526031600452fd5b82634e487b7160e01b5f5260116004525ffd5b5050509091929350610e74565b6064906018866040519262461bcd60e51b845260048401528201527f41786f6c6f52656769737472793a2073616d652074616e6b00000000000000006044820152fd5b60405162461bcd60e51b815260048101849052602d818601527f41786f6c6f52656769737472793a2064657374696e6174696f6e2074616e6b2060448201526c6973206e6f742061637469766560981b6064820152608490fd5b60405162461bcd60e51b815260048101849052602e818601527f41786f6c6f52656769737472793a2064657374696e6174696f6e2074616e6b2060448201526d191bd95cc81b9bdd08195e1a5cdd60921b6064820152608490fd5b610a459150843d86116102e3576102d58183611e52565b346101075760c0366003190112610107576004356001600160401b0381116101075761102d903690600401611db6565b906024356001600160401b0381116101075761104d903690600401611db6565b92906084356001600160401b0381116101075761106e903690600401611db6565b5f54604051632474521560e21b81525f805160206122948339815191526004820152336024820152919692959190602090829060449082906001600160a01b03165afa80156102ea576110c7915f916116865750611f6b565b6064355f5260046020526110e060405f2054151561210c565b6064355f5260046020526110fd60ff600560405f20015416612163565b611108841515611fc8565b81156116325785156115dc57604435156115875760a435156115325761117e6001549561113487612020565b6001556040519761114489611e36565b87895261115236888661202e565b60208a015261116236868861202e565b60408a015260443560608a015260643560808a0152369161202e565b60a087015260a43560c08701523360e0870152426101008701526001610120870152845f52600360205260405f208651815560208701518051906001600160401b038211610733576111e0826111d76001860154611de3565b60018601612073565b602090601f83116001146114c85761120f92915f9183611453575b50508160011b915f199060031b1c19161790565b60018201555b60408701518051906001600160401b038211610733576112458261123c6002860154611de3565b60028601612073565b602090601f831160011461145e5761127392915f91836114535750508160011b915f199060031b1c19161790565b60028201555b606087015160038201556080870151600482015560a08701519687516001600160401b038111610733576020986112c0826112b76005870154611de3565b60058701612073565b8990601f83116001146113d65761012061138f989796946113018561135a9661138299966009965f926113cb5750508160011b915f199060031b1c19161790565b60058501555b60c081015160068501556007840160018060a01b0360e0830151166bffffffffffffffffffffffff60a01b82541617905561010081015160088501550151151591019060ff801983541691151516179055565b6064355f52600588526113708760405f206121b9565b604051956060875260608701916120c2565b91848303878601526120c2565b6044356040830152827f9de62a38e52a7b7455fd9f1becd2a6317ac5b3ffed224361e241fbe58a23520d339380606435940390a4604051908152f35b015190505f806111fb565b90600585015f528a5f20915f5b601f198516811061143c575061138f9897969460018561138298956009956101209561135a99601f19811610611424575b505050811b016005850155611307565b01515f1960f88460031b161c191690558f8080611414565b91928c6001819286850151815501940192016113e3565b015190508a806111fb565b90601f19831691600285015f5260205f20925f5b8181106114b05750908460019594939210611498575b505050811b016002820155611279565b01515f1960f88460031b161c19169055898080611488565b92936020600181928786015181550195019301611472565b90601f19831691600185015f5260205f20925f5b81811061151a5750908460019594939210611502575b505050811b016001820155611215565b01515f1960f88460031b161c191690558980806114f2565b929360206001819287860151815501950193016114dc565b60405162461bcd60e51b815260206004820152602760248201527f41786f6c6f52656769737472793a2070686f746f486173682063616e6e6f74206044820152666265207a65726f60c81b6064820152608490fd5b60405162461bcd60e51b815260206004820152602760248201527f41786f6c6f52656769737472793a206269727468446174652063616e6e6f74206044820152666265207a65726f60c81b6064820152608490fd5b60405162461bcd60e51b815260206004820152602860248201527f41786f6c6f52656769737472793a206d6f727068446174612063616e6e6f7420604482015267626520656d70747960c01b6064820152608490fd5b60405162461bcd60e51b815260206004820152602660248201527f41786f6c6f52656769737472793a20737065636965732063616e6e6f7420626560448201526520656d70747960d01b6064820152608490fd5b61169f915060203d6020116102e3576102d58183611e52565b886101f8565b34610107576060366003190112610107576001600160401b03600435602435828111610107576116d9903690600401611db6565b604493919335828111610107576116f4903690600401611db6565b5f54604051632474521560e21b81525f805160206122948339815191526004820152336024820152929491926020918290829060449082906001600160a01b03165afa80156102ea5761174d915f9161196a5750611f6b565b855f526004815261176360405f2054151561210c565b855f526004815261177d60ff600560405f20015416612163565b855f526004815260018060405f2001838611610733576117a1866105a88354611de3565b5f86601f811160011461190457806117cc925f916118f957508160011b915f199060031b1c19161790565b90555b865f5260048252600260405f2001928411610733576117f8846117f28554611de3565b85612073565b5f91601f851160011461186f5750509161185f9161184e82807f33b0976a844d8284b5176a9d5cd2eab297381859c41d05bf5678ce81caf41e889897965f9161186457508160011b915f199060031b1c19161790565b90555b6040519384933398856120e2565b0390a3005b90508701358b6105c7565b9091601f198516845f52825f20925f905b8282106118e2575050918593917f33b0976a844d8284b5176a9d5cd2eab297381859c41d05bf5678ce81caf41e8898979661185f9694106118c9575b505082811b019055611851565b8701355f19600386901b60f8161c1916905589806118bc565b808685968294968d01358155019501930190611880565b90508b01358c6105c7565b50601f19871690825f5287855f20928c87875f925b848410611951575050505010611938575b50508186811b0190556117cf565b8a01355f19600389901b60f8161c19169055898061192a565b860135875590950194938401938b93500187878f611919565b6119819150833d85116102e3576102d58183611e52565b896101f8565b34610107576040366003190112610107576004356001600160401b038111610107576119b7903690600401611db6565b906024356001600160401b038111610107576119d7903690600401611db6565b5f54604051632474521560e21b81525f805160206122948339815191526004820152336024820152929491939290602090829060449082906001600160a01b03165afa80156102ea57611a30915f91611cfa5750611f6b565b611a3b811515611fc8565b60025492611a4884612020565b60025560405194611a5886611e1b565b848652611a6636848661202e565b6020870152611a7636838361202e565b6040870152336060870152426080870152600160a0870152845f52600460205260405f20928651845560208701518051906001600160401b03821161073357611acf82611ac66001890154611de3565b60018901612073565b602090601f8311600114611c8c57611afd92915f91836114535750508160011b915f199060031b1c19161790565b60018501555b6040870151928351976001600160401b03891161073357888895611b3960209b611b3060028b0154611de3565b60028b01612073565b8a90601f8311600114611bed5760a0611be29594611b9685611851967f7e8252e1257ddebc160fccac27f9b4fe7419a0e0f8b70c9a713709eadfae59b29c9d966005965f926113cb5750508160011b915f199060031b1c19161790565b60028501555b60038401600180841b036060830151166bffffffffffffffffffffffff841b825416179055608081015160048501550151151591019060ff801983541691151516179055565b0390a3604051908152f35b97929190600284015f528b5f20985f5b601f1984168110611c725750611851936001847f7e8252e1257ddebc160fccac27f9b4fe7419a0e0f8b70c9a713709eadfae59b29b9c60059560a095611be29b9a98601f19811610611c5a575b505050811b016002850155611b9c565b01515f1960f88460031b161c191690555f8080611c4a565b828201518b556001909a01998c9950918d01918d01611bfd565b9190600187015f5260205f20905f935b601f1984168510611cdf576001945083601f19811610611cc7575b505050811b016001850155611b03565b01515f1960f88460031b161c19169055898080611cb7565b81810151835560209485019460019093019290910190611c9c565b610a45915060203d6020116102e3576102d58183611e52565b34610107575f366003190112610107575f546040516001600160a01b039091168152602090f35b3461010757611d4836611d77565b905f52600560205260405f20805482101561010757602091611d6991611d8d565b90546040519160031b1c8152f35b6040906003190112610107576004359060243590565b8054821015611da2575f5260205f2001905f90565b634e487b7160e01b5f52603260045260245ffd5b9181601f84011215610107578235916001600160401b038311610107576020838186019501011161010757565b90600182811c92168015611e11575b6020831014611dfd57565b634e487b7160e01b5f52602260045260245ffd5b91607f1691611df2565b60c081019081106001600160401b0382111761073357604052565b61014081019081106001600160401b0382111761073357604052565b90601f801991011681019081106001600160401b0382111761073357604052565b9060405191825f8254611e8581611de3565b908184526020946001916001811690815f14611ef35750600114611eb5575b505050611eb392500383611e52565b565b5f90815285812095935091905b818310611edb575050611eb393508201015f8080611ea4565b85548884018501529485019487945091830191611ec2565b92505050611eb394925060ff191682840152151560051b8201015f8080611ea4565b91908251928382525f5b848110611f3f575050825f602080949584010152601f8019910116010190565b602081830181015184830182015201611f1f565b90816020910312610107575180151581036101075790565b15611f7257565b60405162461bcd60e51b815260206004820152602860248201527f41786f6c6f52656769737472793a2063616c6c6572206973206e6f742061207260448201526732b3b4b9ba3930b960c11b6064820152608490fd5b15611fcf57565b60405162461bcd60e51b815260206004820152602360248201527f41786f6c6f52656769737472793a206e616d652063616e6e6f7420626520656d60448201526270747960e81b6064820152608490fd5b5f19811461015b5760010190565b9291926001600160401b0382116107335760405191612057601f8201601f191660200184611e52565b829481845281830111610107578281602093845f960137010152565b601f821161208057505050565b5f5260205f20906020601f840160051c830193106120b8575b601f0160051c01905b8181106120ad575050565b5f81556001016120a2565b9091508190612099565b908060209392818452848401375f828201840152601f01601f1916010190565b92906120fb9061210995936040865260408601916120c2565b9260208185039101526120c2565b90565b1561211357565b60405162461bcd60e51b815260206004820152602260248201527f41786f6c6f52656769737472793a2074616e6b20646f6573206e6f74206578696044820152611cdd60f21b6064820152608490fd5b1561216a57565b60405162461bcd60e51b815260206004820152602160248201527f41786f6c6f52656769737472793a2074616e6b206973206e6f742061637469766044820152606560f81b6064820152608490fd5b90815491680100000000000000008310156107335782610e37916001611eb395018155611d8d565b156121e857565b60405162461bcd60e51b815260206004820152602560248201527f41786f6c6f52656769737472793a2061786f6c6f746c20646f6573206e6f7420604482015264195e1a5cdd60da1b6064820152608490fd5b1561224257565b60405162461bcd60e51b8152602060048201526024808201527f41786f6c6f52656769737472793a2061786f6c6f746c206973206e6f742061636044820152637469766560e01b6064820152608490fdfeedcc084d3dcd65a1f7f23c65c46722faca6953d28e43150a467cf43e5c309238a2646970667358221220f82b497292cfdf48689bb01463f155bb4a2558ae0b1795e63c0ad7e7497849e864736f6c63430008180033","linkReferences":{}},"methodIdentifiers":{"REGISTRAR_ROLE()":"f68e9553","accessControl()":"13007d55","axolotlCount()":"d957e0ea","axolotls(uint256)":"4924fd33","deactivateAxolotl(uint256)":"9f3cc262","deactivateTank(uint256)":"596a11fe","getAxolotl(uint256)":"8df081b6","getAxolotlsInTank(uint256)":"666364ae","getTank(uint256)":"51cdc8c6","nextAxolotlId()":"5586fe39","nextTankId()":"fc20cfd5","registerAxolotl(string,string,uint256,uint256,string,bytes32)":"3032b43f","registerTank(string,string)":"18b27cfb","tankAxolotls(uint256,uint256)":"1118d78b","tankCount()":"b6aa9893","tanks(uint256)":"4d5e9695","transferAxolotl(uint256,uint256)":"3b4532ec","updateAxolotl(uint256,string,string,bytes32)":"71f1af2f","updateTank(uint256,string,string)":"27d8eda8"},"id":7}